:0200000407FCF7
:100000005052FC077501FC077D01FC079501FC07B8
:1000100000000000000000000000000000000000E0
:10002000000000000000000000000000AD01FC071F
:100030000000000000000000AF01FC073519FC07BC
:10004000511FFC078B1FFC07A526F007C919FC07E9
:10005000711EFC07B301FC07FB17FC07B301FC078B
:10006000B301FC07B301FC076315FC076715FC0728
:100070009115FC079515FC079915FC07A91EFC07AF
:10008000BD15FC07B301FC07B301FC07B301FC0776
:10009000B301FC07B301FC07B301FC07B301FC0784
:0200000407FCF7
:100110000348854604F0ECF8004800474903FC0713
:100120005052FC0710B51149062008800F2000F03E
:1001300010F8012000F00DF8002000F00AF805206A
:10014000000741890422914341810021018062B668
:1001500010BD002809DBC106C90E012088400449F2
:100160000860BFF34F8FBFF36F8F704700340050AC
:1001700080E100E00F4880470F48004704207146A7
:10018000084203D0EFF309800C490847EFF30880D9
:100190000A49084704207146084203D0EFF309805A
:1001A00007490847EFF3088005490847FEE7FEE7DF
:1001B000FEE7FEE72501FC071101FC075D02FC07D5
:1001C000C501FC0710B5044620484089C00508D584
:1001D0001B2000F093FF1D4860300188012211436D
:1001E000018005221207508AFF218131884311883E
:1001F0000907890FC9010843508215492068086022
:1002000060684860A0688860E068C860206908612C
:1002100060694861A0698861E069C8610C620D4845
:10022000836A4B62C36A8B62036BCB62C36B0B63E3
:10023000436B4B63806B8863074908200880908A72
:10024000C00601D500BE10BDFEE700002000005032
:100250000090FC0700ED00E00033005070B505256C
:1002600004462D07288A0421084328822889402132
:100270000843288124480126066024490820088074
:1002800023484089C00507D51B2000F037FF2048D0
:100290006030018831430180688AFF2181318843C1
:1002A00029880907890FC90108436882194920680C
:1002B000086160684861A0688861E068C861206979
:1002C000086260694862A0698862E069C8620C637C
:1002D0001148826A4A63C26A8A63026BCA63C26B4C
:1002E0000C4940310A60426B4A60806B8860A88A82
:1002F000C00608D500BE688A012180088000C903B5
:100300000843688270BDFEE780E200E000330050E1
:10031000200000504090FC0700ED00E070B5094E51
:100320000D4604461146304601F084FBAAB2012373
:100330002146304601F0F2FB70BD10B5014801F0D6
:1003400025FC10BD0011005008B500F0B2F800F017
:1003500060FB052424076025C8269E4F0FE001207E
:1003600000F018FA00200090042168464DF7E6FBE3
:10037000002801D000F0D1FA60F7D2FC0BE0208910
:10038000000608D501208007006B000403D49248C2
:100390000078C0070BD072B601F08AFE042810D096
:1003A000022815D0032813D0012848D048E05DF773
:1003B00024F8002000F0EEF9884800780428DBD10A
:1003C000CDE787480078012801D0032000E0022013
:1003D00000F039F8A08AC00602D5824908200880BA
:1003E00030BFA08AC00602D57E49082048807E48DA
:1003F0004089C0050AD47C4860300088C00705D019
:1004000079482030418AA943203141827749888840
:10041000A843203088807648C078002807D07548E7
:10042000006801898AB2416803205CF747F903F04C
:1004300098F87149086904229043086100E030BFD0
:1004400062B63E809BE738B56946052408702407EC
:10045000218A054604221143218200F063F8624894
:1004600041896022C905002905DB5F4B2033598A89
:100470009143403159825D498B88934340338B804F
:10048000022D01D0032D13D18188490849008180B4
:10049000002000900099491C00911429FADB618921
:1004A00089088900491C618161894906FCD5608001
:1004B00038BDF0B551485249C523C127514A884239
:1004C00001D31C4604E0904201D33C4600E0C02426
:1004D0004D4D4E4E4648AD194D4E8470AD19012616
:1004E000B6034560B54201D8D42500E0C0252540BB
:1004F000484C45708C4213D2474B2546EB1894422A
:1005000005D38B4201D2D1230AE03B4608E0934257
:1005100001D2D42304E08B4201D2D02300E0C023D7
:100520000370F0BDF8B5022801D0032848D1324A43
:10053000136904210B4313612C4A203A93895B0809
:100540005B00938105241022294E24070228757828
:10055000608A36D010436082608A08436082706887
:10056000C01C870801F00EFC608A102108436082DD
:100570002A487F1E0762EFF31080012181F3108863
:100580002188802291432180002800D0012080F31F
:10059000108815484089C0050AD501F0E1FB0B2001
:1005A00000F0ACFD10486030018801221143018049
:1005B00003205CF7A9F8002806D00120F0702583FD
:1005C000F8BD90436082F3E70020F070307805407A
:1005D000F5E700000031005054BAFC07108DFC070D
:1005E000B4BAFC0700330050200000502003005034
:1005F000C88BFC0758B9FC0700ED00E0C08BFC0776
:100600000070FC070040FC071001FC07A049000037
:10061000000004F85052FC070C0400000000F4072E
:10062000704770B50D46002442F769F92855641CDF
:10063000E4B2202CF8D3002070BD10B55EF74AFD5F
:1006400010BD10B55EF74FFD10BD70477047704785
:100650000649884200D000BE05210907488A0122C8
:1006600080088000D2031043488270471111111195
:1006700044480178002902D08021417070474249E6
:10068000002008704149C87070473E490A78002A26
:1006900003D000280CD002200BE0002801D002205B
:1006A00000E001203849087038490120C8707047BF
:1006B0000120803048707047002805D0012804D000
:1006C000022804D10120E0E7D2E70020FBE77047D1
:1006D0002D4900200978002904D0012903D00229DE
:1006E00000D10220704701207047264881780029F8
:1006F00004D0491E0906090E817019D142780021E3
:10070000002A04D09207920F0270417004E0027830
:10071000002A01D0521E02701206120E017007D07C
:10072000012A03D0022A03D10120AEE70020FCE712
:10073000704700B5134A9078401C907010780028DC
:1007400005D1FFF7C5FF431CFFF792FF137000BDF3
:100750000C48C07870470020EFF31081012282F32B
:100760001088052212071289120605D4084802894A
:1007700001231A4302811846002900D0012181F388
:1007800010887047D08BFC07B4BAFC0754BAFC073A
:100790000033005010B5FE4CA178002921D0FD494E
:1007A000002803D008884007FCD402E008884007EE
:1007B00017D4CA88888811040A180020A070F64847
:1007C00000235043800B401C4008E0611F2040067E
:1007D000492162F745FEE162A06264214843000CB2
:1007E000A06110BDEB4948800888032210430880AF
:1007F0000888042210430880E5490120887070476A
:1008000070B50520000701893022914301810189DB
:100810008022114301810189082211430181DF49AE
:100820000A88520852000A80438918229343438160
:10083000048940231C430481048A0425AC430482B8
:10084000848AA407FCD5D24DAA246C61CD880124EA
:100850000F263602B5430B263602AD19CD80CD8862
:100860002543CD8044899443083444814A88520802
:1008700052004A8001899943018101208007016863
:10088000821591430160C64801683F22520291439C
:10089000421489180160016802031143016070BDB0
:1008A00010B5BB490122D203C969904205D303F0B8
:1008B00048FD8905800A084310BD4843800A10BDE1
:1008C000EEE710B5B24989694843B6494018490076
:1008D0005EF798FB10BDF4E770B500F099FB044695
:1008E000FFF7F9FFAA4D288120463C30FFF7F3FFC0
:1008F000AD49001D48602A891018C01DAB4A086028
:100900001278022A01D111300860FFF7D9FFA849F7
:10091000401880B25CF702FE70BDF0B5A54885B006
:100920000121C163C16B0029FCD101208007C0698E
:10093000974C2169884201D2002121611922411A74
:10094000D20191422AD320619B48018803914188BA
:1009500002918788C688994903C900900191684629
:1009600000F01EFF00F052FF0546012020567F28B0
:100970000CD0281A40B2002801DA404240B20828C0
:1009800005DBE068401CE06001F06FFD65708A489F
:1009900003990180029941808780C68005B0F0BD2F
:1009A0000020704710B5864900200860FFF794FFCB
:1009B00001208007016B49004908016310BD08B59B
:1009C0007349888075498A88520852008A800022BB
:1009D00000920099491C00911429FADB05210907AE
:1009E0004B899B089B005B1C4B814B895B06FCD5AC
:1009F0004880E120C0000092521C00928242FBDB42
:100A0000488980088000488148890006FCD508BDD7
:100A10007047F8B56B48C8210180002141806A48C1
:100A20000824448000F0B0FB684DA9886846018026
:100A30000088FFF7EDFF68460088042398433AD00A
:100A40000020A8806148203001880F2292021143C3
:100A50000180524E2036718A214371824F496031A4
:100A60000A880625AA430A800588CA01154305801D
:100A7000758A95437582B28A0E25AA43921DB28269
:100A8000464A5589524FED050D8819D5BD4357018A
:100A9000ED190D800D880F022D052D0DED190D801E
:100AA00005882543058005889D4305800D886D08D0
:100AB0006D000D8020E0288A400840002882C1E7B0
:100AC000BD4303277F02ED190D800D880F273F03DB
:100AD0003D430D800588A543058005889D4305801D
:100AE000B58A03277F02BD43B5820D8801273D43A8
:100AF0000D8051894907FCD50188032529430180D0
:100B0000718A6025A943203171828188A9432031EF
:100B1000818001201E4E052530702D07E88AC021F6
:100B200088438030E882108A000A00021082108B0D
:100B30001C2188430830108326480380A88801219F
:100B4000C9028843A88048012349086001F01AF9C6
:100B5000022001F0DCF8214F3869C0B2AA286FD01A
:100B6000012029880C2291438000014329800848F4
:100B7000203000F075FA00F007F900F046FA00287E
:100B800060D000F042FAFFF71AFF7F20707027E074
:100B9000D88BFC07001600501111010020000050F6
:100BA0000002004020A10700B04BFC07B4BAFC07CC
:100BB000E2040000C0000040001500503446FC076D
:100BC000A8B9FC070031005000330050000300506A
:100BD000000F00000002005080E200E0C07FF80734
:100BE00001F000F900F03EF802F0BBFC012041F7F3
:100BF0008CFEFFF705FE1748006841F72BFB1649EE
:100C00000020C87008710120800701688215114317
:100C1000016000F037FE1E20FFF7E4FD0120FFF722
:100C2000B9FDFFF725FD02F0C3F802F012FDFFF752
:100C3000B9FE0A49C820088009484480F8BDFFE78A
:100C400003208EE73869C0B2AA2801D06E209AE747
:100C5000802098E74CB9FC0754BAFC0700310050DB
:100C60000033005070B52C4E2C4892B0354600240D
:100C700010C5401E0028FBDA03F06CF8294928480B
:100C80000860294830220480284929485EF734FA50
:100C9000234908228868C9681191109010A9254835
:100CA0005EF72AFA1E494022103168465EF724FAA0
:100CB0004022694620485EF71FFA20482149047007
:100CC0001F480860214920480860224920480860E0
:100CD00021490A20087021482149047032200870F7
:100CE000204905200860204A012111601F49086041
:100CF0001F49062008601F49072008601E49082078
:100D00000860FF201D49073008601D4908601D4824
:100D1000066012B070BD000000A0FC07FF070000D5
:100D20003C46FC0760BAFC07088CFC077CFCF1071A
:100D300000BAFC07DAB9FC07B0BCFC07FDB9FC0738
:100D4000603FF20750B9FC07CC43FC0754B9FC07DD
:100D50004845FC0758B9FC07B0B9FC07B1B9FC0716
:100D6000D9B9FC075CB9FC0760B9FC0764B9FC079A
:100D700068B9FC076CB9FC0770B9FC0748B9FC07F7
:100D800044B9FC074CB9FC07F0B5AA4C89B0002067
:100D9000207660760390A8480069A849884202D06E
:100DA000C81709B0F0BDA44F0425403FE819016DF4
:100DB0000191090F092910D00120019A8007824270
:100DC0007DD310469E4A904279D89E490835884284
:100DD00002D1E819C06CE0828FE0019A01991204F7
:100DE000C9B2160E112937D007DC0B005EF7D8F90F
:100DF000087676767676760D207612390B005EF7D9
:100E0000CFF9063C4D5F6D62676D207EB200C10078
:100E10008848403808188849143169185EF76CF919
:100E2000207E8019C0B22076042857D900BE55E034
:100E3000607EB200C1007F48403808187E491030FB
:100E4000143169185EF758F9607E8019C0B2607677
:100E50000C2843D900BE41E0416D89B20491406D38
:100E6000000C01460290049800F0D5F8A080029989
:100E7000049800F0D8F8E08030E0416D89B2049128
:100E8000406D000C01460290049800F0C4F82081E7
:100E90000299049800F0C7F860811FE0039806A942
:100EA000800040186449B200143169185EF724F9D3
:100EB000039880190390022810D900BE0EE010E0BC
:100EC000406D60820AE0416D5A484038016405E097
:100ED000406D0004000CA08200D100BEB000451996
:100EE00031E007292FD008292DD00A292BD0062937
:100EF00029D00198401C07D000BE4F481030291857
:100F00005148814200D251E70698A0810798050C0C
:100F100086B22946304600F07EF8E0812946304608
:100F200000F081F82082207EC10700D000BE40087A
:100F30002076607EC10700D000BE40086076A18A9E
:100F4000002902D004E02D1DD7E77D21C900A18230
:100F5000042800D000BE002023E7F8B5354C00255A
:100F6000403C344F24E0EE00A059384988421AD161
:100F7000301900904068800A400414D001F038FD18
:100F8000092810D90098032240681202014609047A
:100F90001040890E0843A159086000982C49406808
:100FA000C001C00D02E030194068A15908606D1CF5
:100FB000387EA842D7DCF8BDF8B51E4C0025403C71
:100FC0002746403717E0E800061922483169814278
:100FD0000DD101F00DFD092809D91F49706908409C
:100FE0001B490988490408433169086002E03069F7
:100FF000716901606D1C787EA842E4DCF8BD0D4883
:10100000808970470B48408A70470A48C08A7047F9
:101010000848808A7047081A0104890C40180F4953
:10102000401800B27047C2008018401A0004C01473
:10103000704700004C8CFC07C07EF807A5A5A5A54D
:101040004C42005002000050C07FF8074C10004096
:10105000B84BFC0738300040FFFF01FC0100FFFFE8
:1010600010B5062201495EF747F810BDD47FF80796
:1010700005200007018830221143018001880322E6
:1010800011430180704705200007018830229143F9
:1010900001800188890889000180704736490A8BE0
:1010A00003231B029A43000202430A837047334919
:1010B0008A8A03235B029A43C3085B021A438A822B
:1010C0008A8A0723DB0240079A43800C02438A8204
:1010D0002A484030018801221143018027482038E6
:1010E00041894907FCD570472448818A808A49058F
:1010F000890FC9008004400F081870471F498A8A69
:1011000003235B029A43C3085B021A438A828A8ADA
:101110000723DB0240079A43800C02438A82704710
:1011200010B50446154820384089C00502D4012076
:10113000C04310BD00F011FE002806D0FFF7D4FF19
:10114000A04202D90020C04310BD0C48408AC00410
:1011500008D40B480088000704D4082C02D20420CD
:10116000C04310BD07480121047041702046FFF7BD
:101170009EFF002010BD00002030005040000050B5
:1011800020030050BC4BFC07F0B585B00026F74C9F
:101190000296029830214843009600190099890070
:1011A00046500099491C00910C29F7DB0298401C1D
:1011B00002900128EDDB02F0E1F8EC4D0021083D42
:1011C0002960696001270296002000900299E84892
:1011D0004900465A00993846884080B206421DD0E0
:1011E0000298302148430099001989004058411C59
:1011F0001BD000280DD0C117009A5DF7C1FF029ADD
:1012000012015DF7BDFF2A686B681043194328601F
:1012100069600098401C00900C28DBDB0298401CA1
:1012200002900128D0DB05B0F0BD00BEE3E7F8B5C1
:10123000164605460C460A461F46012000215DF76A
:101240009FFF2A015DF79CFFC84B083B1A685B684B
:1012500010401940084300D100BEC649680140183B
:10126000610008183E43C680F8BD70B505460C46BF
:101270000A46012000215DF783FF2A015DF780FF08
:10128000BA4A083A1368526818401140084300D11E
:1012900000BEB849680140180121A140818070BD9D
:1012A00070B505460C460A46012000215DF768FF2F
:1012B0002A015DF765FFAD4A083A13685268184085
:1012C0001140084300D100BEAA496801401801211D
:1012D000A140418070BDFFB581B00C4605460A466D
:1012E0001F46012000210A9E5DF74AFF2A015DF793
:1012F00047FF9E4B083B1A685B6810401940084343
:1013000000D100BE002E2146284602D0FFF7C8FFBC
:1013100001E0FFF7AAFF3B4621462846039AFFF764
:1013200086FF80E770B505460C460A46012000217D
:101330005DF726FF2A015DF723FF8C4A083A136800
:10134000526818401140084300D100BE8949680125
:10135000401800880121A140084000D0012070BD44
:10136000FFB583B01446012000210D9E049A5DF75D
:1013700007FF039A12015DF703FF7C4A083A1368DE
:10138000526818401140084300D100BE7AA000689E
:10139000274600900A3F4020B840019080B200F0FC
:1013A000FDF8002E01D0012100E00021734D8140A5
:1013B000AA89019882431143A9813F2000F0EEF8E9
:1013C0008640A889800980010643AE812026BE4060
:1013D000B0B200F0E3F80C998140288AB043014391
:1013E000298201263046B840074680B200F0D6F880
:1013F00006998140288AB843014329820F2000F0D2
:10140000CDF803996A46525C0499511881405B48B3
:10141000620040381018828D120912011143818533
:10142000A007C20EFF21914080209040002C08DBD5
:10143000A308534A9B009A1813688B430343136015
:101440000AE02207120F083A93084E4A9B009B18A5
:10145000DA698A430243DA61002C04DBE006C00E3D
:1014600086404948066007B0F0BD44490A8A012118
:101470000A3881400A40C80701D0002038E08807B8
:1014800001D5012034E0480701D5022030E00807EB
:1014900001D503202CE0C80601D5042028E08806E9
:1014A00001D5052024E0480601D5062020E00806E5
:1014B00001D507201CE0C80501D5082018E08805E3
:1014C00001D5092014E0480501D50A2010E00805DF
:1014D00001D50B200CE0C80401D50C2008E08804DD
:1014E00001D50D2004E0480401D50E2000E00F20B6
:1014F000C240D0B2704770B5012421460A388140FD
:101500000D4688B200F04AF884401C48C189A943BE
:101510000C43C48170BD02460A3A042A05D8134A16
:1015200080003032801880388165704710B50446DD
:101530000A3804280BD82046FFF7DDFF0B49A0002E
:10154000303140188038806D002801D0804710BDB0
:10155000002CFCDBE106C90E012088400B49086025
:1015600010BD0A20E2E70B20E0E70000708CFC07CA
:101570008C46FC07003000500100000000140050B1
:1015800000E400E000ED00E000E100E080E200E0C7
:101590000C20CBE70D20C9E70E20C7E700280BD0B1
:1015A000411E4840C003010C002002E04908401CD5
:1015B00080B20029FAD170471020704710B5FFF7AC
:1015C00062FD0522120790882049000504D5204BB2
:1015D0001C880520A04311D09088C3061D481FD544
:1015E0008388DB071CD003881B0619D50122828063
:1015F000028880239A430280486822E018880422E7
:101600001043188018884008400018800C68002C8F
:1016100005D00220185E995E0A229A5EA04710BD8E
:101620009288D206FBD582889207F8D50288D20527
:10163000F5D5022282800288FF2301339A4302807B
:1016400088680028EBD0804710BD0000B48CFC07F0
:10165000000200500001005083480188012212035B
:101660009143018070478048018801221203114391
:101670000180642000BF401EFCD170477A49CA88AF
:10168000D208D2000243CA8070477749CA887023C3
:101690009A4300010243CA807047F8B5050045D05F
:1016A000714C287821884022914380010143218098
:1016B0002878012868783AD0FFF7E0FFE878042618
:1016C0000128208836D0B04320802879A1880002E4
:1016D000C9B20143A180E08801274006400F7F0284
:1016E000042829D0FFF7B8FFA8780F2800D900BE3A
:1016F00061880F2252029143400201436180687960
:1017000061888908890001436180A87901282088BF
:101710003ED0B8432080E879072800D900BE618810
:10172000FF22C1329143800101436180F8BDFFF780
:10173000ACFFC3E73043C7E7FFF764FC4B49002821
:10174000088001D14A480880FFF78DFF2088384380
:1017500020802188402081430143218060883043DC
:1017600060806088C004C00C608060880F214902DE
:101770008843084360806088FF21C1318843FF218E
:101780008131084360806088800880006080F8BDF7
:101790003843BFE734480188012211430180704774
:1017A00070B50546304C002020802120000160806B
:1017B0004020A080FFF723FCA081A18970208143F5
:1017C0004031A181062000F042F82846FFF765FF6E
:1017D000FFF7E0FF70BD2448018802221143018019
:1017E000704700B5FFF7F7FF1F4801888907C90F49
:1017F000FBD10121C181008A00BD1B490120C881A4
:101800001C480068002800D00047704710B5FFF75B
:10181000E2FF154801888907C90FFBD10121C18169
:10182000008A12490988401A7D21C90048430028CE
:1018300001DD114903E0002802DA0F49494240184E
:101840000E495DF7F5FB8011193040B210BD00283C
:1018500009DBC106C90E0120884009490860BFF3B1
:101860004F8FBFF36F8F704700150050BE4BFC07C2
:1018700040760000C08CFC072303000046060000F1
:1018800080E100E0F8B5FF27C137012138465AF75B
:10189000A3FF054600F023F800242E5D0321304607
:1018A0005DF7B0FB2048405CFF21C031091B695C3B
:1018B000484070402855641CBC42EED31A481C2294
:1018C0002946001D5FF7ACFB002800D000BE28466B
:1018D0005AF7FDFF1448406841F717F8F8BDFEB508
:1018E000124C2088019060880090A788E6881048F4
:1018F000FFF756FFFFF775FF0B4D80092870062094
:10190000FFF7C3FEFFF76DFF800968700520FFF742
:10191000BCFEFFF766FF8009A87001982080009840
:101920006080A780E680FEBDC04BFC07001500501C
:101930008E46FC0702480068002800D00047704728
:10194000C48CFC078307FF22DB0E9A408907090E2F
:101950009940002808DB8308DB489B001B181868A7
:1019600090430843186070470007000F0838830849
:10197000D6489B001B18D86990430843D86170472C
:10198000D34930B4884201D0012100E00021D14A7E
:101990004901891808E0838ADB07DB0F12D003882E
:1019A000541C8D68CC81AB54CA898B899A42F2D37E
:1019B00082885208520082808A69002A02D0C8892F
:1019C00030BC104730BC704710B5C34800F0FBF87E
:1019D00010BDEFF31081012282F31088BC4B052269
:1019E00012079842908801D1802300E040231843D9
:1019F0009080002903D0012080F3108870470020D8
:101A0000FAE710B502464032938FDB07DB0FFBD1BC
:101A100083898022934313438381CCB2C0231C5219
:101A20000B041B0E03800902090E818081899143FA
:101A3000818110BDA64A904201D0012000E0002023
:101A4000A44A4001801841617047F0B5A04F0D468F
:101A50000446B84201D0012000E000209D49400129
:101A600046182046FFF7B5FF7C20005B286801027E
:101A7000090A2046FFF7C5FFE978C8068A06800FE5
:101A8000D20FC000920049071043490F0843A081BC
:101A9000E878C109204680300183E978CA091AD064
:101AA000BC4210D14906CA0F218A20239943520112
:101AB00011432182E9784906CA0F218A02239943FA
:101AC00052001143218229790907890F81832979DD
:101AD0008907890F0184287A3077E868306128699E
:101AE00070616869B06128790007800F7077F0BD78
:101AF000828A5209D207D20FFAD00180704730B5DE
:101B000013460C46054606E021782846641CFFF77C
:101B1000EFFF5B1E9BB2002BF6D130BD70B56C4D54
:101B20000446A84201D0012000E00020694E400197
:101B300086190020F080B280002B06D0012B07D13F
:101B40003160AC4205D1022004E02046FFF7D7FF08
:101B500070BD032000F029F8A088022188430843C3
:101B6000A080A088802188430843A080317FAC42B8
:101B700001D1022000E00320FFF7E4FEAC4201D1D6
:101B8000022000E0032000F007F870BD818A890977
:101B9000C907C90FFAD07047002805DBC106C90E76
:101BA000012088404D490860704700280ADBC106C3
:101BB000C90E01208840494980310860BFF34F8F2A
:101BC000BFF36F8F7047F8B5414D424E04462089F0
:101BD0000007000F062826D009DC012840D0022883
:101BE0001DD00428F3D12046FFF7CAFEEFE70728EF
:101BF00028D00C28EBD1AC4201D0012000E000201D
:101C0000400187192046FFF7BBFEA188490849001B
:101C1000A180B9690029DAD0F8898847D7E720463A
:101C200000F01FF8D3E72046AC4201D0012100E0CC
:101C30000021490189190A69002AC8D0818A9E2396
:101C400019400BE02046AC4201D0012100E0002108
:101C5000490189190A69002AB9D001219047B6E7DC
:101C6000F8BD1B4930B4884201D0012100E00021B9
:101C7000184A490189180EE003891B069B0F032BA4
:101C80001BD0838A9B06DB0F002B1BD0531C0C68D8
:101C9000CB80A25C0280CA888B889A42ECD382886F
:101CA00002239A438280828880239A4382804A69F1
:101CB000002A07D0888830BC10477C231B5A9B071A
:101CC000DB0FE1E77EE6000000E400E000ED00E06D
:101CD00000100050C88CFC070011005000E100E02B
:101CE00010B50446FFF700FAA04202D22046FFF7E3
:101CF00005FA58480188C90708D101880122114313
:101D000001805448603841894907FCD510BD38B579
:101D1000514C054620684107490F6846017000781C
:101D2000854219D04B4860384089C0050CD5A81EA3
:101D300003005DF735FA05040604040409000B20CE
:101D400000E01320FFF7CCFF2068C008C000284344
:101D5000206060684007FCD538BD40480078704777
:101D60003E490020087070470521090709880906C7
:101D700000D400BE3A49800009583748016139490A
:101D80004161704710B5EFF31084012080F3108893
:101D9000304860384089C0050BD5304901200870B3
:101DA000FFF7A2F9304908702A480088C007C00F21
:101DB00048700520000701888022114301802648D1
:101DC0000168C908C900016041684907FCD50320C2
:101DD000FFF7CAFF002C03D0012080F3108810BD4C
:101DE0000020FAE770B5EFF31084012080F310882B
:101DF00005210907088880221043088016480368D7
:101E0000DB08DB00036043685B07FCD5174B03610D
:101E1000144B43610888904308800E48603840891D
:101E2000C0050ED50D4900200F4D08702878FFF72A
:101E300065F96878002804D10648018849084900F6
:101E40000180002C03D0012080F3108870BD002099
:101E5000FAE70000800000500000F407088DFC073E
:101E60009846FC07090404A4BC4BFC070F00990921
:101E700010B50A4880890A49C96A002901D08847F3
:101E800010BD042000F001F810BD002805DBC106DC
:101E9000C90E012088400349086070472013005094
:101EA000D44BFC0780E200E002480068002800D024
:101EB000004770470C8DFC07F8B50125AD07AC6BEA
:101EC0002046FEF7FDFC6849684F4A6886180020E6
:101ED0004860394630465DF795F8654948603A46AE
:101EE0005043301A00D0381A80B20860286B08219D
:101EF0008843084328635F4804605F4800680028FF
:101F000002D0A04200D200BEF8BD10B5FFF7BBF86A
:101F1000052000074189890703D041898908890084
:101F200041810189802211430181018A0422914368
:101F30000182818A8907FCD500F0B2F80120800770
:101F40000169490700D500BE01694907FCD510BDEC
:101F500010B5FFF78DF8494801894907FCD4FFF710
:101F600092F8474805210088090748804548464CB3
:101F70000088801E608007202080FFF779F8208885
:101F80004007FCD4FFF7C1FF10BDF8B53F4801681A
:101F9000C90703D0016802221143016001684902A8
:101FA00004D50168012292051143016001272E4EDC
:101FB000BD072C69002C55D0200606D58020A861CD
:101FC0004BF765FC1E20FEF70DFCA00703D5022091
:101FD000A86147F75AFB200708D50820A861002010
:101FE00047F70CFB0420307000F0F9FCE00505D544
:101FF000FF200130A861012047F700FBA00504D5B0
:1020000001204002A8614BF7ABFC600603D54020DD
:10201000A86147F7EEFAE00603D51020A86145F75E
:10202000ABFE60070FD50420A86114480189490858
:10203000490001815BF748FA40F702FB1E20FEF7DA
:10204000D1FB00203070E00706D00120A8615BF7CB
:1020500057FA4BF71CFC3770A006AAD52020A861C0
:1020600000BEA6E7F8BD0000108DFC07710200005D
:1020700040000040208DFC07188DFC070033005005
:10208000DC8BFC07E08BFC070016005000020040D0
:1020900010B540F71AF9674880686749486010BD75
:1020A00010B540F73EF9644862494068886010BD49
:1020B000F8B5002500F0B9F800270090FEF748FBBE
:1020C00001465E4E0020002902D13179022900D15B
:1020D00000905B490989C9070DD15AF75AFA0028BF
:1020E00009D0F0780125002805D005200007808A56
:1020F000C00701D0042596E0308800287DD1FEF786
:1021000027FB002806D14F48806A002802D000F043
:102110008CF80090FEF7E0FBB17868465BF731F889
:1021200000286AD00124A407206940067BD44348D4
:10213000817868464BF702FD002874D00120FEF735
:10214000ADFF0099002906D0206AFF383938DA2817
:1021500001D8491E00913C4802883C48016850184B
:102160003B4A1060E26B920A92020A43E263E16B1F
:10217000384A1140384A1668B2021143E163E16BF4
:10218000C902C90A40050143E163344A00980425A5
:102190000021904200D300BE314B0CCB5CF75CFFBA
:1021A0000903000D0843244A401E711C1060884238
:1021B00000D1166021480079002801D0012100E0FB
:1021C0000021106847F7D0FB2648C06A8047FEF719
:1021D000E7FB002802D0FEF74BFF0127154E206BCE
:1021E0000004C00FFBD03068C005FCD530688024E7
:1021F000A0433060002F03D000E014E0FEF743FF5F
:102200000F494889462804D24622174B101A1860F5
:102210004A81FFF73DFF30680006FCD50520000726
:102220000189A14301812846F8BD10480068806AF1
:102230007047000000020040188DFC0754BAFC07EC
:102240000033005074BEFC07E08BFC07B44BFC0766
:10225000044CFC07FF03E0FFB04BFC0740420F00BB
:10226000008CFC0758BFFC07148DFC0758B9FC070D
:10227000002070477047704710B5282801D22820E9
:1022800002E0E62800D9E620FF21F33148437D2112
:10229000C9005CF7B7FE8130C0B210BD704770470F
:1022A00010B5022902D0012900D000BE002802D0BA
:1022B000FF2802D000BE022902D000F099FB10BD19
:1022C0000C2010BD01218907086B07221043086309
:1022D0008B480168021391430160704710B50220DA
:1022E000FEF7DCFE864801680203914301608548E1
:1022F00000214163416B1F2212049143421389184C
:10230000416301060868F0229043E030086010BD88
:102310007D490A8B7D480068836A1B0C1B041343AC
:102320008362498BC26A120C12040A43C26270476C
:10233000754920390A8B75480068C3691B0C1B045A
:102340001343C361498B026A120C12040A430262EE
:10235000704710B58AB06E4941626E4981626E491C
:102360004161002430210C546C49C1626C49016008
:102370006C4901626C4941606C49C16100F01BFB12
:102380006048416B1F221204914342138918416334
:102390005B480168C2129143016068460455641CA1
:1023A000E4B2282CFAD30146614828220068403064
:1023B0005CF7A2FE092000F018FB00F01CFB0028CF
:1023C00002D0012000F011FB00F0F6FAFEF7C5FD87
:1023D000FEF7F2FD00F0B2F800F057F8FFF77EFFCD
:1023E00000F0E8FA00F061F800F0F9FA0AB010BD68
:1023F00010B54448416B1F221204914342138918BF
:10240000416300060168C908C90001600520000792
:10241000018908221143018100F0EDFA002802D061
:10242000012000F0E2FA00F0C7FAFEF796FDFEF791
:10243000C3FD00F083F800F028F8FFF74FFFFFF727
:1024400067FF00F0CCFA10BD70B504462F4D703018
:102450007022384928605CF74FFE2968081B024645
:1024600048320A815C30488170BD10B500F0A4FA92
:10247000FEF7A2FD00F062F800F007F800F09AFA0B
:10248000FFF756FF00F0ABFA10BD1E4B10B54033FE
:102490001868294C0102090EC2B20A3109040A3235
:1024A000204011430143196010BD10B5FFF740FFF4
:1024B000FFF72EFF14482038018A1448006882690B
:1024C000120C12040A4382610F4A40329188036B56
:1024D0001B0C1B040B430363D188426B120C1204C8
:1024E0000A43426308494A88836B1B0C1B0413434D
:1024F00083638988C26B120C12040A43C26310BD45
:10250000000200404000004020300040084CFC0722
:102510007122FC077522FC07A122FC07C522FC07DB
:102520007722FC079D22FC079F22FC077922FC07EB
:102530004CB9FC07B446FC0700FF00FFF0B5FE48AD
:10254000406B7F21090288430B2109024018FA4998
:102550004863086AF94980B24018F7490862886BF5
:10256000F749012208405203F34980188863F24872
:102570004030016903231B0219430161818B102440
:1025800021438183EC4820308188012421438180CC
:10259000ED49EC480860ED4C20883F210901884353
:1025A0002F21090140182080E84820388169E84D32
:1025B000490D490549198161C169E64D294009253F
:1025C0006D024919C1614168E34D2940E34D491944
:1025D00041608168E24D2940E24D49198160C1683E
:1025E000E14D2940E14D4919C1600169E04D2940A3
:1025F000E04D49190161E049C514097809064919F6
:10260000C1256D012943DD4D29600525DC49AD0259
:102610000D816D1D8D81DA4920310D892D0A2D0224
:1026200055350D818D25AD000D82D64D8D82D64D4F
:102630000D83D44D0E3D8D83D349D14DC91D4035F9
:102640002980D249A181C16BD14C2140D14C0919BB
:10265000C163FF20D04C6C302080CF482030068BE7
:102660001F2149010B258E43AD0176190683CA4807
:102670004030868809278E43BF01F6198680068977
:1026800015278E437F01F619068186898E437119BD
:102690008181FF208D30A080BF4880300189E024F7
:1026A000A14319430181818B490949011931818372
:1026B000B2482030818B5B01994389188183AF48F0
:1026C00080300168C908C900C91C0160AB49B34822
:1026D00040314862F0BDA94908B500208031C86288
:1026E0000090401C0090FF28FBDDAD480078AA490F
:1026F000C006820D4031C8681F235B019843104318
:10270000C86008BDA7488C490068403108608A4805
:102710008169890989011C3181618169C2139143F1
:102720008161016B3F2212069143072292068918AC
:102730000163016B3F22920191430F22D20189185C
:102740000163016B890989011E31016370477A4871
:10275000C16949084900C16170478F4808B54030D8
:10276000C1688F4A8905C90E1170C1681F225201C4
:102770009143C16081490120887180488030C16ADD
:1027800003221143C16200200090401C0090FF28EA
:10279000FBDD08BD08B57949022088710020009052
:1027A000401C00900B28FBDB08BD634841210177EA
:1027B000C16903225202914302158918C161704711
:1027C0005D4840300168774A11600021C9430160CB
:1027D000594881698909890181618169C2139143DD
:1027E0008161C1690322520291430315C918C16175
:1027F000C169702399434031C161016B3F231B06BE
:1028000099430B235B06C9180163016B3F239B01AE
:10281000994389180163016B8909890118310163A2
:102820007047F8B5554803274771434C6068C009A5
:10283000C00114306060FFF7C3FF43202077FFF72B
:10284000A9FFFFF78AFF0025261500950098401C78
:102850000090B042FADB4949032048713648803085
:102860008068C705FF0DFFF736FF00950098401CF4
:1028700000901028FADBA0694002400AF9050843DD
:10288000A061A06948490840B9010843A061FFF769
:102890008CFFFFF77FFFFFF760FF00950098401C5B
:1028A0000090B042FADB354903204871224880305D
:1028B0008068C705FF0DFFF70EFF00950098401CCC
:1028C00000901028FADBA0694002400AF90508438D
:1028D000A061A06934490840B9010843A061FFF72D
:1028E00064FFFFF757FFFFF738FF00950098401C83
:1028F0000090B042FADB2149032048710E48803035
:102900008068C605A069F60D4002400AF10508433B
:10291000A061A06924490840B1010843A061FFF704
:1029200016FFFFF7EFFEFFF7D6FE00950098401C5C
:1029300000901028FADB39E0003000400000888861
:10294000FF00FEFF59055C0780000040202000408A
:1029500009581A00FEE1FFFFE0E0000008092949DC
:1029600000000303696A686C031FFFFF70600000CA
:10297000E0E0E0E00B0A0A08248DFC0700100040AC
:1029800020130040340A000051080000070F000027
:102990002F64E0FE101A06010012004050015001A1
:1029A000AC4AFC070C4CFC073F80FFFF13484681F4
:1029B0000120F8BD35E7704708B5114809210171BC
:1029C00000210091009A521C0092102AFADB00911B
:1029D000491C00911029FBDB0321417108BD084807
:1029E000022181710021818070470649087070477B
:1029F000044800787047034840787047104CFC0743
:102A000000100040248DFC07F8B50025204CFF275E
:102A10002E46002813D1284610302661A082E78276
:102A20006660A660E681A681C0B2214626605AF79C
:102A3000E0F96D1CEDB21834022DECD3F8BDE08A3C
:102A40005EF75CFC002802D0416820468847E78298
:102A50006660A660E681207D5AF725FA6D1CEDB20E
:102A60001834022DEBD3F8BD70B5094C064600258D
:102A7000E08A5EF743FC002803D082683146204696
:102A800090476D1CEDB21834022DF1D370BD0000DB
:102A90002C8DFC0710B500F079FA60F729FE0020B4
:102AA000FDF70AFE10BD0C21314A10B541438918CB
:102AB0008978FF2902D000F0C1F810BD00F015FEA2
:102AC00010BD10B560F7FCFC002801D000F00DFE31
:102AD00010BD10B500F009FE10BD10B525490A78EB
:102AE0000270401C491C5CF707FB10BD2149498C52
:102AF00001807047082101801021418000218180E0
:102B00007D21C180704770B50C4601780025194BB6
:102B1000002904D0012909D04820207070BD827896
:102B2000011D1A70581C5CF7E7FA01E040885884D0
:102B3000257070BD01200870002048808880704793
:102B400070B504464079800911D13FF7D8FE01469F
:102B500020700A0A62700A0CA270090EE170251D2D
:102B60003FF7CDFE2870000AC0210843607170BD98
:102B7000748DFC07808DFC070021B14A05E083427B
:102B800001D101207047491CC9B20C234B43D35CCF
:102B9000FF2BF4D10020704770B5A949A94C0E460F
:102BA0000C36A94D0DE052185268002A07D0C2B267
:102BB0000C235A4351184968401C60702DE0401C9A
:102BC000607060780C2242438B5CFF2BEBD10AE0F3
:102BD00089194968002903D0FFF7CEFF002809D0E2
:102BE0002078401C207021780C204143705CFF2825
:102BF000EED117E020780C21414389194968401C27
:102C000020700AE04919C968002909D0C1B21C2204
:102C100051434919C968401CA0708847002070BD05
:102C2000401CA070A0781C2141436A5CFF2AE9D1B6
:102C30000020A07060702070012070BDF8B50546BE
:102C400000247F4E0AE080198168002904D0641CAA
:102C5000E4B22846884701E0641CE4B220460C2117
:102C60004843315CFF29EED1754E00240C3609E053
:102C70008F19B968002903D0FFF77EFF002809D01B
:102C8000641CE4B20C216143705CFF28F0D1002485
:102C90006D4E10E0641CB968E4B228468847F1E73D
:102CA00080190169002904D0641CE4B228468847D1
:102CB00001E0641CE4B220461C214843315CFF293A
:102CC000EED1F8BD10B55F4CE06800281CD152234E
:102CD000042209215D4859F78DFE0D21E060017045
:102CE000002141705A4A8280C2800722027201226A
:102CF00042728172C1722B23195402460C3255A3C1
:102D00000B210B3060F706FCE06810BD70B54D4E2E
:102D100004468500361D7059002816D121020E2365
:102D200004224F480A3159F765FE09210170002C31
:102D300000D000BE70511021818008214180002107
:102D4000C1807D22028141818181705970BD70B541
:102D50003C4EB068002829D13C482C23042209218C
:102D6000093859F747FE032101700A21B06041700C
:102D700017210184002585760446458010210A30FC
:102D80005CF7D3F92021E176A583E5833548658496
:102D9000C08F0021002800D90846E0843148002176
:102DA00040300088002800D908462085B06870BDF2
:102DB0003EB500252249009501950C223431684624
:102DC00002955CF799F91F480C22183069465CF7A8
:102DD00093F91C4C0B22243422701EA1601C5CF75A
:102DE0008BF917496584243104205AF702F8002131
:102DF00004205AF730F83EBD64E710B5FFF762FFD4
:102E000059F713FE0F490020C860022104205AF729
:102E100022F810BD10B50446FFF778FF59F705FEFC
:102E2000084A0020A100121D505010BD10B5FFF738
:102E30008EFF59F7FAFD03490020886010BD00009D
:102E40006847FC075C8DFC07B048FC070D0D0000CF
:102E50004C0400004449414C4F472D544D504C0008
:102E60000E0E0000F0BBFC0700B50978180A0B0035
:102E70005CF796F9080511111112121212110C21AA
:102E80003F4B41430122C918CA7200217A225043A4
:102E90003C4A115400E000BE002000BDFFB5180AF6
:102EA0001E4681B01B0A00901C467A2044430C2524
:102EB00034486B430A78324D201807465D19921E3C
:102EC000603713005CF76CF90604123619222D36B0
:102ED00089783976C90706D0691D062271305CF7FA
:102EE0000BF92879F8750020E87228E00020E872D4
:102EF0003876009860F744FB21E0224D17223A30E3
:102F0000891C5CF7F9F8285D042107E01D4D1022AB
:102F10006130891C5CF7F0F8285D102108432855C2
:102F20000DE0184D1C221E30891C5CF7E5F8285D69
:102F30000221F3E73346039A019800F07FFC00205A
:102F400005B0F0BD00207047180A7A2250430D4AA0
:102F500009788018603001760020704700207047A3
:102F60000020704700207047FEB51C46089B0726CE
:102F7000054D6F4668C71346224660F7B9F9FEBD96
:102F8000748DFC07BA8DFC07A847FC07704710B585
:102F90000A23042209210B4859F72CFD04461B2063
:102FA0002070142060F778FB60701420608004208B
:102FB000A0800020E080FF2174312181204659F754
:102FC00034FD10BD1B0D0000F8B50E4609781846FB
:102FD000002425460B005CF7E3F8090609120915E1
:102FE000150C180F1B000B241AA512E007241CA5B2
:102FF0000FE008241CA50CE007241EA509E00A2404
:103000001EA506E00F2420A503E0062422A500E06B
:1030100000BE0146A31C224859F7ECFC0746307855
:1030200038707C70002C04D022462946B81C5CF70E
:1030300063F8384659F7F9FC0020F8BDFEB51C4688
:10304000089B0126174D6F4668C71346224660F756
:103050004FF9FEBD4469616C6F672053656D69006F
:103060004441313435333100123456FFFE9ABCDE10
:103070000000000001D2008005000100312E302E3A
:10308000302E302D4C450000765F362E302E3132FA
:103090002E313032302E3200FFEEDDCCBBAA0000E4
:1030A00003140000E047FC07052000070089000624
:1030B00008D501208007006B000403D40348007882
:1030C000C00701D0002070470120704754BAFC07A8
:1030D00070B51049049C4118052901D3012070BD29
:1030E00000F00FF80025002807DB0B4A810050583C
:1030F000002803D05550804700E000BE2570002016
:1031000070BD04494018052801D240B27047002024
:10311000C0437047F2FBFFFF388EFC0770477047D3
:1031200070B50D460446FFF7BFFF002806D06F4874
:103130002A460421201859F79CFF70BDFDF70BFBB0
:103140006A48042208231146801E59F753FC456043
:10315000047059F76AFC70BDF8B5654C069D0619F8
:103160000024002E26D0012E0CD0634F614B3A462E
:10317000283A022E0AD05E49C91E41180A2929D3CD
:103180000120F8BD00F088F828703DE00878461E60
:10319000092E0DD88000001F1058984233D1B0007E
:1031A0003B5813504A6808781146FFF7B9FF2AE0E8
:1031B00000BE28E04A68002A0AD05048824200D364
:1031C00000BE087849494018042159F752FF1AE017
:1031D00000BEF6E74649891E4018C0B2411E0929C3
:1031E00010D88600B218803AD16F00290BD09942CE
:1031F00009D0434B994206D0D467F219803AD4677C
:10320000884700E000BE2C700020F8BD0A4601008F
:1032100010B53A480ED0814200D300BE364B002094
:10322000283B84001C59002C06D0401C0A28F8DBDF
:10323000002010BD00BEF1E784001A51401C0406B6
:10324000240EF5D02046FFF76BFF204610BD70B569
:103250000446401E09281DD82748A10028380D180B
:10326000803DE86F002813D0254EB04210D01F4893
:103270000421201859F747FF1C480422082311464F
:10328000401EEE6759F7B6FB047059F7CEFB70BDD0
:1032900000BE70BD00BE70BD10B508780C46411E62
:1032A00009291FD882001448121F28388258144B4D
:1032B0009A4205D10022890042502830425012E043
:1032C000890040580B4988420DD104220823114639
:1032D000064859F78FFB217801706168416059F702
:1032E000A4FB00E000BE002010BD000003040000AD
:1032F000FFFBFFFF1F31FC07748EFC07FCFF3F0044
:103300001D31FC070021154A06E0834203D11C2031
:10331000414388187047491C1C234B43D35CFF2B47
:10332000F3D10020704710B51823042209210C485E
:1033300059F760FB04461B202070FD2060F7ACF9B4
:103340006070FD2060800420A0800021E180E160A9
:103350002161A182204659F768FB10BDB048FC07E7
:103360001B0D00003EB51D46069B0024009313462E
:10337000019402942A465FF7BBFF3EBD70B5824BB5
:1033800000265869F643002801D0304600E00120AD
:10339000C117C20E49011143420158617B480468BC
:1033A00045682243294302604160196A002900D11F
:1033B0000126F117320E09021E621143046832021F
:1033C0004368224319430260416070BD38B5002450
:1033D000032204231202052120460094FDF77BFFFF
:1033E00000231A46082118460094FDF774FF38BDE3
:1033F000F1B567A207CA84B06B4607C3002608214F
:103400003046FDF74DFF00E0761C08210020FDF757
:1034100089FF0028F8D0304600F064FE0322D24332
:1034200000F04AFE00225D4B00F0D0FD00F090FE5F
:1034300007465B48864215D25A49384600F0DCFC04
:1034400000F072FE584A594B00F0CEFD04460D467E
:10345000384600F069FE22462B4600F013FD00F0CE
:1034600077FE07465248864215D93946514800F042
:10347000C3FC00F059FE504A504B00F0B5FD044625
:103480000D46384600F050FE22462B4600F0FAFC6E
:1034900000F05EFE07464648494C6D46864229D2FA
:1034A0004449384600F0B0FC00F02AFE7D21C900F6
:1034B00003905BF7A7FD0A215BF7A4FD685C207011
:1034C000642103985BF79EFD0A215BF79BFD685C16
:1034D00060702E20A0700A2103985BF793FD039182
:1034E0000A215BF78FFD685CE0700399685C2071CE
:1034F000002060712E48864228D32E49384600F0BD
:1035000083FC00F0FDFD7D210646C9005BF77AFDD6
:103510000A215BF777FD685C2070642130465BF719
:1035200071FD0A215BF76EFD685C60700A21304610
:103530005BF768FD0E460A215BF764FD685CA070CE
:103540002E20E070A85D20710020607106221C48CA
:1035500004995BF7D1FD1BA004995DF7CFFB05B083
:10356000F0BD10B51B20FDF7DBFD00F0C3FB1749D4
:103570001748FEF76AFAFFF729FF164801218289EA
:103580008A430A43828110BD708CFC07688CFC075B
:10359000303132333435363738390000000849408D
:1035A000010500000000F0417B14AE47E17A743F52
:1035B000610900000000C842FA7E6ABC7493883F2B
:1035C0003A4CFC0725730D0A000000007849FC07FF
:1035D0000011005000030050BF48417902790902F0
:1035E0001143491C89B201710A0A4271BB4A9142D6
:1035F00002D1002101714171704770B5B64C0A3C8F
:10360000E079000602D52546333501E0B24D0A3592
:10361000FFF7E2FFE0790A224006400E4019AE496A
:103620005BF76AFDAC4A637A29321046217A1F386B
:103630005FF782FFAA490A20FFF7E8FD607070BDBE
:1036400010B5A54C0A3C2078FFF7E4FB0020A070E1
:1036500010BDA14910B500200A399F4A887009237E
:103660001370FF235370CD239370AB23D37010716D
:10367000507108724872C870087148718871FFF7FC
:1036800009FA10BD9749002008704868964B821EC1
:103690009A4204D8954A5043954A801888607047EA
:1036A0007CB5904C2078002807D0012804D002284F
:1036B00002D16068401C60607CBD0A20FDF7D5FE29
:1036C0000028F9D100250220656020708949052075
:1036D000FFF79CFD60700120034600900A2208213C
:1036E00001950020FDF73CFE7CBD1CB500210120AA
:1036F0000B46019100900A2208210020FDF730FEC0
:103700007D490A20FDF707FF75490A20FFF77EFD76
:1037100071490A394870FFF76FFB01230A226E498D
:1037200000F098F8FFF769FB1CBD70B50C46054624
:103730000C207249684340188078FF2816D0664EE6
:103740000A3E35707078FFF782FD608808380928D6
:1037500005D2A088002802D1E0887D2808D07D20ED
:103760006749C000FFF752FDB07001E0FFF7BDFFF1
:1037700021462846FFF797F970BD442800D1B4E7E9
:10378000704770B5544C00250A3CA078002802D040
:10379000FFF75DFDA570E078002802D0FFF757FD28
:1037A000E5702079002802D0FFF751FD257160797E
:1037B000002802D0FFF74BFD6571A079002802D0E8
:1037C000FFF745FDA571FFF707FFFFF78EFF70BDFF
:1037D00038B5FD203EF7F7FF01460823042249488B
:1037E00059F708F904466846FFF702FE0221618096
:1037F000A1800120607068460088E080204659F76B
:1038000014F941490520FFF701FD33490A39887150
:1038100038BD10B5304C81790A3CA079002906D01A
:1038200000280AD138490A20FFF7F0FC04E00028FC
:1038300003D0FFF70CFD0020A07110BD314AD24328
:10384000801806D0032804D108464988032900D1EE
:10385000DFE77047FEB517460446002B01D01C2059
:1038600000E01F20E27A1C4E831A20460C300190A3
:10387000203025460A3E20350090BB4209DB0198E6
:1038800010183A465BF738FCE07AC019E0720A3843
:103890000FE0E87A1F22121ABA420CDB009A801855
:1038A0003A465BF729FCE87A8021C019E8720A38A9
:1038B0000843F07100E000BEE27A074832720A3035
:1038C00001995BF719FCEA7A034872722930009972
:1038D0005BF712FCFEBD0000A68EFC07FFFF000098
:1038E000FB35FC07404CFC077F0C00007102000018
:1038F0006F5CF8FF8536FC07A136FC07748DFC076A
:103900004136FC0706FD0000D137FC07F8B5074635
:1039100001200023024600901946032045F772FD5E
:103920000446022180300170FC4DFB482A68438820
:103930001146FF31F7310B8680884886F848066AC1
:103940000123DB069E431E430662FF320020FF3246
:10395000383250829082D0821D200882F1484884FB
:10396000F148C882F148088300204882384646F76B
:1039700089F801462868FF30F730C28B920992011E
:103980000A43C283EA48416800208847002C02D0DD
:10399000204645F720F92046F8BDFFB58BB0064616
:1039A00016980027022821D00D980188149881428A
:1039B00078D37188084640383F2802D8159852F7C6
:1039C0001DF90C98361D0088149A80190E995BF722
:1039D00093FB0C980188149808180C9908800D988E
:1039E00001881498081A0D9908805CE100200E9D4A
:1039F000079069782C78090221433180E978AC7806
:103A00000902214371808C46403904242D1D024651
:103A100003468E46402900D32878614604291FD0EA
:103A2000052914D0062918D070463F283DD815988E
:103A300052F7E4F80006000E04D0BE48008D0006E0
:103A4000C00F30D002230120BB4A002712E0697862
:103A500000290FD0B94A17230CE0B94A0F2309E017
:103A6000522802D0D22802D002E0142000E0152013
:103A7000B44A1F23002A1AD0984218D28000105846
:103A80000490002813D000200890059070884038DA
:103A9000402803D32878052430716D1C701D0090D8
:103AA0000498B5E0FEE03027F0E03327EEE07088C0
:103AB000042872D10627E9E0522862D00CDC4B289A
:103AC0003FD004DC41286AD0422858D111E04C286C
:103AD00020D0502853D140E0632830D004DC572850
:103AE00018D061284BD19BE06C2864D0772846D150
:103AF00009E00098297801700098641C401CA4B269
:103B00006D1C009081E00498401C04900178089896
:103B100081427AD10098A41C401C41084900881CAD
:103B2000009068782A780002104308800599AD1C3F
:103B3000A4B2002969D008900020059065E001201A
:103B4000FBE71022294600985BF7D6FA009810345C
:103B50001030A4B21035009057E020464030149940
:103B6000039088420BD84022294600985BF7C4FA9C
:103B70000098403000900398403584B245E03427E7
:103B800043E00822294600985BF7B6FA009808340B
:103B90000830A4B20835009037E068E0FFE706225D
:103BA000294600985BF7A8FA0098A41D801DA4B2CE
:103BB000AD1D009029E01498001B80B2039030885E
:103BC000001B001D81B2012007900498401C049046
:103BD0000098401C40084000009004980078572846
:103BE0001CD04228CBD100980170090A417000987E
:103BF0002946801C0090039A5BF77EFA039803998C
:103C0000201884B20098401800900498401C04903A
:103C1000007800281ED0002F17D01BE04908E2E7EB
:103C20001498001B81B200980391401C400840008A
:103C3000009001200A460790294600985BF75CFA3D
:103C40000399601884B20098DDE70D990988A142B4
:103C500000D331E70D980088A04208D30499097871
:103C6000002904D10799002903D1A04201D03427AB
:103C70000CE00D99001B08800C9801880098801BAF
:103C8000001F08180C99002F08800CD07088042899
:103C900009D0062807D04038402804D30E98407930
:103CA000707100E0342738460FB0F0BDFFB581B029
:103CB0001F4616460C46104659F7E2F800257F28A5
:103CC00002D02189062909D03B4632462146019877
:103CD00052F727FB0546284605B0F0BDC00601D5C2
:103CE0000225F8E720780028F5D1300AA11D3EF71B
:103CF000B0FCF0E710B5A022134914485BF7FCF9BB
:103D000011495022503912485BF7F6F90F4900204B
:103D10002039086010BD000030BCFC074CB9FC071E
:103D2000C0000040108000002941000076710000B2
:103D300058BFFC0748BEFC073803F2074003F207F0
:103D40009C03F207D803F207E049FC072000084073
:103D5000C000FC077047F8B502464A40D40F420045
:103D60004B0052085B089A4202D2024608461146AE
:103D70004A0023D0C30D4A00DDB2120EAD1A202D29
:103D800035DA49020126490AF6058A19002C00D0C5
:103D9000524220214F1B1146B9402A411018C20D32
:103DA0009A4221D0002C17D0012D08DCDA05801AA8
:103DB000D20F8019D207DBB200F001FAF8BDDA05A4
:103DC000801A012340001B06C01880185A42801830
:103DD000CA0F1043490007E04908C2071143DA053A
:103DE000801A80194008801800F0E1F9F8BD6100E0
:103DF0000122511A001BF7E70122D2075140AAE71E
:103E00000122D2075040A6E7024670B54A40D30FC0
:103E1000DB0740002DD04A002AD0010E140E00020C
:103E200012020919400A520A8418E5010446544353
:103E3000000A120A2E045043A4194219200CC5434B
:103E4000AA18120C0125AD03521C521912047F3915
:103E5000240400D0521C104301D44000491EC2B2B9
:103E60000C06C0092018401C4008802A02D003E03C
:103E7000002070BD40084000002900DA00201843EF
:103E800070BD0000F0B507460846584087B0C00F27
:103E9000049048000E46590040084908BC1A884161
:103EA00005D2384631461E4617460B460246580094
:103EB000400810434CD0300D039040055900400D90
:103EC000490D0590401A0290402872DA180301212A
:103ED000000B09050843019004980092002805D0C2
:103EE000019952420020884100920190029840219D
:103EF0000A1A019900985BF743F905460C466B4690
:103F000007CB00F041F9C0197141039A0E0D00234F
:103F1000D71756401A467A40164344D0049A002ACE
:103F20002DD0029A012A039A15DC1205C01A91417C
:103F300001263605001C7141D20F059ED207009361
:103F4000019202962A46234600F07FF907B0F0BDA1
:103F500038463146FAE71605224A0F46B218C01A0B
:103F6000B74101210905001C4F4100187F4111464E
:103F700018187941E20F10436D19644113E0E2070C
:103F80006D0815436408C2071443039A01261205FD
:103F9000C01A91413605001C7141CE0740083043DC
:103FA0004908C01851412A46234600F041F9CDE79F
:103FB000FFE7049801224000C117121A00238B4129
:103FC00004983146C417381AA141EEE730B40124F1
:103FD000E407634030BC55E730B40124E407614096
:103FE00030BC4FE70000E0FFF0B51FB488B00B997C
:103FF0000998002448400999C00F490049080991CF
:10400000C0070B990090490049080B91099908983D
:10401000A64608431CD00B990A98084318D0099863
:1040200001244000420D4800410D09982405000379
:10403000000B204309900B980003000B20430B90CA
:1040400050181C494018002201901446104605E003
:10405000002001460DB0F0BD032801DA034600E060
:1040600003239C46C11A0AAE0AE05F0008ADED5B6F
:104070004F00F75B7D430027AA187C41491C5B1E5B
:104080006145F2DD410004AB5A522104120C0A438F
:10409000240C401C0828DFDB019802900099704630
:1040A00001910090059B049A0799069800F0CDF8BD
:1040B000D0E700000DFCFFFF70B54B005B08034329
:1040C0000BD04B005C0D002633466542B341D4173C
:1040D000AD1AA34102DB0020014670BD1205301865
:1040E000514170BD0EB505490291002100910A466B
:1040F0000B46019100F0A9F803B000BD33040000A5
:10410000410040020122400AD205090E80187F2991
:1041100001DA00207047962903DC9622511AC84024
:104120007047963988407047C20FD2074000400858
:104130000BD0C10D0723DB01C91840020905400A55
:104140001143C208400711437047002001467047E1
:10415000CB0FDB07490010B5490802460A4307D0D8
:104160000A0D07240903E401090B121B002A01DCD4
:10417000002010BDC900440F0C43C100E018D20557
:10418000801800F014F810BD10B5202A06DBCB17FC
:104190000846203A1041C1170B4306E00B46134175
:1041A000D0402024A21A91400843194610BD00298E
:1041B00004DA401C490001D140084000704770B447
:1041C0000024050C05D11024000402D1002921D0BF
:1041D0001124050E01D100020834050F01D10001A0
:1041E000241D850F01D18000A41C002801DB4000A4
:1041F000641C002908D020252E1B0D46F540A14047
:1042000000D001212943084301061B1B000ADB1DC6
:1042100002D5002070BC7047DB05181880180029F3
:10422000F8DA401C4900F5D170BC400840007047E6
:1042300010B5002B08DA0024401C614192185B4144
:104240001A4301D14008400010BDF0B51FB482B040
:1042500005460C0003D0084600F05CF802E000F0D0
:1042600059F8203002460090214628465AF788FF28
:10427000049B059A04460F4618431143084314D083
:10428000184610431BD0009840210A1A1846059979
:104290005FF7D5F805460E46009A059904985AF737
:1042A0006FFF084305D0012004E02046394607B0DF
:1042B000F0BD0020C11705430E432C43374300993E
:1042C0000E986305401A7905E40A00220C43FD0AA2
:1042D0000A3002D500200146E9E7010510196941BD
:1042E0000C9C0D9D00196941FFF7A2FFDFE700005C
:1042F000064C0125064E05E0E36807CC2B430C3C39
:1043000098471034B442F7D3FBF706FF8C4AFC07FA
:10431000AC4AFC072021020C01D010211046020AF1
:1043200001D010460839020901D01046091F820841
:1043300001D01046891E420801D0881E7047081A15
:104340007047F8B5040C8BB2264682B25E430D0C62
:104350001046370C5843360480190021794116461F
:104360006E43370C36048019794126466E4389190D
:10437000F8BD02E008C8121F08C1002AFAD1704730
:104380007047002001E001C1121F002AFBD17047D5
:10439000B04AFC07C58BFC07C68BFC07C08BFC072B
:1043A000C48BFC071D03FC073B03FC07EB06FC0763
:1043B0003307FC07F401010070CAEA80D007064009
:1043C00064320000B443FC07F88BFC075323FC075E
:1043D000F123FC0793DEF007F1DEF007F9DEF007CA
:1043E00049DFF00761DFF00777DFF00799DFF007BB
:1043F00019E3F007BDE5F007FDE3F0071DE4F00762
:104400003DE4F0077BE4F0078BE4F007F5F9F007F3
:10441000B1F7F007CFF7F007EBF7F00705F8F00773
:1044200019F8F00797F8F007AFF8F007DFCDF107BC
:1044300067D0F107DBB9F007CD0DF207B10EF20737
:10444000AD0EF207A90EF2078D21F0075106FC0709
:10445000B91EFC07A509FC07D708FC07C108FC0723
:10446000B57EF007837DF0070D39FC07599EF107F3
:10447000634CF107092AFC07D110F207692AFC07EF
:10448000B111F2074112F2077912F20700000000A1
:104490004B06FC074D06FC07B9C6F007D592F1079D
:1044A0009B39FC075F9DF1075F9CF107AD3CFC0762
:1044B000EB72F107B922F1076B04F1072106FC0743
:1044C0002BA4F007F1D2F0075FBDF007D5BDF007D0
:1044D00085BEF007DB2DF007752EF0071581F0077C
:1044E000DF7FF0070937F007000000003B06FC07FC
:1044F0004306FC072306FC07F3C3F10775C4F10765
:104500004F06FC074924FC070000000000000000E3
:10451000000000000000000000000000000000009B
:10452000000000000000000000000000000000008B
:10453000000000000000000000000000000000007B
:104540000000000000000000050000005052FC07C1
:1045500000040000FC92FC07AC020000F08EFC0797
:1045600000040000B495FC07700500002003000063
:1045700000A60E0004000000D2000000320000007F
:104580003C000000010000000100000002000000EB
:10459000020000000400000003000000060000000C
:1045A0000000000002000000020000000000000007
:1045B00000000000030000000300000005000000F0
:1045C00005000000060000000A0000000A000000CC
:1045D000C8000000B80B000002000000B80B00008B
:1045E000B80B000010000000D4010000CC01000056
:1045F000700200006A0000000400000001000000DA
:10460000200000000A00000001000000E204000099
:104610008A020000DC050000AF000000C443FC0774
:10462000000000002447FC074C47FC079048FC07AB
:104630009043FC070104000000000000000000009F
:10464000000000003F00000000000000200080008B
:1046500000C00000000084000000282200000000CC
:104660000000040000F7FFFF7F00000030F0FF0FA4
:104670000000000000040000000000000000000036
:10468000000000000000000000000000FF0F010417
:1046900000000003000000000100990903009909CF
:1046A000070099090F0099091F1099092F209909EE
:1046B0005F5199090800049000000000000000000C
:1046C000030005D08B0035F010005CF0000010B046
:1046D000000018B000001AB0030051F0000038B01C
:1046E00000003AB0000064B0000066B0000022B0E4
:1046F000000024B0010005D0000000000A00008086
:1047000008030490000004F0030006D0000000003D
:104710000A00008008030490000004F0030006D0A3
:10472000000000001049FC071249FC071449FC076F
:104730000533FC0714000000ED14F207FD00000033
:104740002126F207FF000000000000003447FC07AC
:104750002C8DFC070200000000004C044C040701F3
:104760000001020304050600FF0000000000000035
:1047700000000000140000008F2FFC070000000064
:10478000FF0000000000000000000000000000002A
:10479000583FF207B88DFC0704000100000000003C
:1047A0000000000000000000130E0000692EFC074E
:1047B000150E00009D2EFC07170E0000452FFC076C
:1047C000190E0000492FFC07150D00005D2FFC0796
:1047D000210D0000612FFC07220D0000652FFC0752
:1047E00002140000C92FFC072B37FC078337FC0796
:1047F0000000000000000000C32AFC0700000000C9
:104800007B37FC0700000000D32AFC0700000000F3
:104810000000000000000000DB2AFC07ED2AFC0776
:10482000F52AFC07072BFC0700000000352BFC07CE
:10483000412BFC0700000000000000000000000009
:104840000000000000000000000000000000000068
:104850000000000000000000000000000000000058
:104860000000000000000000000000000000000048
:10487000000000008D32F2075931FC07D130FC07EF
:10488000692FFC073D30FC076533FC07F80000008A
:104890002D2EFC07992BFC07E847FC073D38FC0749
:1048A0007448FC07748DFC07BA8DFC07A48DFC07C7
:1048B000FD0000001449FC07050000002733FC0739
:1048C000000000000000000000000000FF000000E9
:1048D00000000000000000000000000000000000D8
:1048E0000000000000000000595A08E4862A9E8F4C
:1048F000E911BC7C9843421817B967984C664C0183
:10490000963331B191590015002803280229012955
:10491000000501000849FC0710000000010000002C
:1049200010001000E848FC070A49FC0702000000DC
:10493000010000000000000000000000F848FC0733
:104940001000000001020000020000000000000052
:104950000C49FC07020000000900020002000000F0
:10496000000000000E49FC070200000001000000EA
:104970000A000A00804AFC070B08008300000000C0
:104980000200000000000000000000000000000025
:104990000000000000000000000000000000000017
:1049A0000000000000000000000000000000000007
:1049B00000000000000000000000000000000000F7
:1049C00000000000000000000000000000000000E7
:1049D00000000000000000000000000000000000D7
:1049E00000000000000000000000000000000000C7
:1049F00000000000000000000000000000000000B7
:104A000000000000000000000000000000000000A6
:104A10000000000000000000000000000000000096
:104A20000000000000000000000000000000000086
:104A30000000000000000000000000000000000076
:104A40000000000000000000000000000000000066
:104A50000000000000000000000000000000000056
:104A60000000000000000000000000000000000046
:104A70000000000000000000000000000000000036
:104A800054454D502056616C75650000B04AFC07D6
:104A9000B04AFC07A00700008243FC07C08BFC075C
:104AA000C08BFC07300300008243FC070E000000AF
:0400000507FC0111E2
:00000001FF
